:100000000C9435010C9466010C9466010C94660105
:100010000C9466010C9466010C9466010C946601C4
:100020000C9466010C9466010C9466010C946601B4
:100030000C9466010C9466010C9466010C946601A4
:100040000C9466010C9466010C9466010C94660194
:100050000C9466010C9466010C9466010C941505D1
:100060000C9466010C9466010C9466010C94660174
:100070000C9466010C9466010C9466010C94660164
:100080000C9466010C9466010C9466010C94660154
:100090000C9466010C9466010C9466010C94660144
:1000A0000C9466010C9466010C9466010C94660134
:1000B0000C9466010C9466010C9466010C94660124
:1000C0000C9466010C9466010C9466010C948905ED
:1000D0000C945F050C9466010C9466010C94660107
:1000E0000C9466010C94DC020C9498010C94900121
:1000F0000C94AF020C94AB010C94B3010C941A0352
:100100000C94C1010C94AF010C9438090C94C601F5
:100110000C949B010C94A1030C94B9010C94CB0199
:100120000C94EB020C9408030C9494010C948C0135
:100130000C94A5010C94BD010C94A1010C94C70171
:100140000C9454030C948601000021002400270025
:100150002A002D00300033000101000004010701D6
:100160000A0100002200250028002B002E0031008B
:10017000340002010000050108010B01000020000D
:100180002300260029002C002F003200000100006F
:10019000030106010901050505050705080808080A
:1001A000020202020A0A080804040404010101010F
:1001B000010101010303030303030303040707070A
:1001C0000C0C0C0C0C0C0C0C0202020206060606AF
:1001D000060606060B0B0B0B0B0B0B0B010210207C
:1001E000200808102040102040800201020108046D
:1001F0000201010204081020408080402010080401
:100200000201800402018040201008040201080459
:10021000020101020408102040800102040810209D
:10022000408000000A0B02090C0D0E0807030401B0
:1002300000000000000000000000000000000000BE
:10024000000000000000000000000000000012118B
:10025000100000000000000000000000000000008E
:100260000000000000000000380911241FBECFEF7D
:10027000D1E2DEBFCDBF00E00CBF12E0A0E0B2E0F3
:10028000EAE0F3E100E00BBF02C007900D92AA3153
:10029000B107D9F729E0AAE1B2E001C01D92A53467
:1002A000B207E1F711E0C5E3D1E000E006C0219715
:1002B0000109802FFE010E947B09C433D10780E031
:1002C0000807A9F70E94D6050C9483090C94000036
:1002D0008150823108F05AC0E82FF0E08827EC58AE
:1002E000FE4F8F4F0C947B099401980186018C017D
:1002F0009001C6019B01A101A501AB01AF01B301B2
:10030000B901BD01C601C101C701CB0180918000C7
:100310008F77809380000895809180008F7DF9CF42
:1003200080918000877FF5CF84B58F7784BD089555
:1003300084B58F7DFBCF8091B0008F778093B00024
:1003400008958091B0008F7DF9CF809190008F77D4
:10035000809390000895809190008F7DF9CF8091D7
:100360009000877FF5CF8091A0008F778093A000C9
:1003700008958091A0008F7DF9CF8091A000877FA4
:10038000F5CF809120018F7780932001089580918F
:1003900020018F7DF9CF80912001877FF5CFCF930A
:1003A000DF93282F30E0F901EE5DFD4F8491F901D4
:1003B000E452FE4FD491F901EA56FE4FC491CC238A
:1003C000A1F081110E946801EC2FF0E0EE0FFF1FF9
:1003D000E458FE4FA591B491EC91ED2381E090E0BB
:1003E00009F480E0DF91CF91089580E090E0FACFAA
:1003F0001F93CF93DF93282F30E0F901EE5DFD4F7F
:100400008491F901E452FE4FD491F901EA56FE4F6E
:10041000C491CC23A9F0162F81110E946801EC2F02
:10042000F0E0EE0FFF1FEE59FE4FA591B4918FB78C
:10043000F894EC91111108C0D095DE23DC938FBFA6
:10044000DF91CF911F910895DE2BF8CFCF93DF93EB
:1004500090E0FC01E452FE4F24918A569E4FFC012D
:1004600084918823D1F090E0880F991FFC01E85B0C
:10047000FE4FA591B491FC01EE59FE4FC591D49168
:1004800061110EC09FB7F8948C91E22FE0958E23F6
:100490008C932881E223E8839FBFDF91CF91089559
:1004A0008FB7F894EC91E22BEC938FBFF6CF3FB768
:1004B000F8948091410990914209A0914309B0912B
:1004C000440926B5A89B05C02F3F19F00196A11D30
:1004D000B11D3FBFBA2FA92F982F8827BC01CD018E
:1004E000620F711D811D911D42E0660F771F881FED
:1004F000991F4A95D1F708958F929F92AF92BF921C
:10050000CF92DF92EF92FF926B017C010E94570223
:100510004B015C01C114D104E104F104B9F00E9463
:100520005702681979098A099B09683E7340810559
:10053000910580F321E0C21AD108E108F10888EEA4
:10054000880E83E0981EA11CB11CE4CFFF90EF90B1
:10055000DF90CF90BF90AF909F908F900895AF9213
:10056000BF92CF92DF92EF92FF920F931F93CF93A0
:10057000DF936C017B018B01040F151FEB015E0102
:10058000AE18BF08C017D10759F06991D601ED9197
:10059000FC910190F081E02DC6011995892B79F726
:1005A000C501DF91CF911F910F91FF90EF90DF90E8
:1005B000CF90BF90AF900895FC01558D468D252FAB
:1005C00030E0842F90E0821B930B541710F0CF96ED
:1005D000089501970895FC01218D328D838D948DAE
:1005E0002817390791F0A38DB48DAE0FBF1F5F960A
:1005F0002C91838D948D019664E571E00E946709CA
:10060000948F838F822F90E008958FEF9FEF08954E
:10061000FC01218D328D838D948D2817390739F097
:10062000838D948DE80FF91F878D90E008958FEFEB
:100630009FEF0895FC01818D928D238D348D8C5A0E
:100640009E4F821B930B64E571E00E946709089539
:100650008EE793E00E941A0321E0892B09F420E041
:10066000822F0895FC01A68DA80FB92FB11DAD589A
:10067000BE4F2C91868D90E001968F739927868FBF
:10068000A689B7892C93A089B1898C9183708064E5
:100690008C93958D868D981306C00288F389E02D82
:1006A00080818F7D80830895EF92FF920F931F9337
:1006B000CF93DF93EC0181E0888F9D8D8E8D981311
:1006C0001AC0E889F989808185FF15C09FB7F89421
:1006D000EE89FF896083E889F9898081837080646D
:1006E00080839FBF81E090E0DF91CF911F910F91B8
:1006F000FF90EF900895F62E0D8D10E00F5F1F4FC5
:100700000F731127E02E8E8D8E110CC00FB607FCD3
:10071000FACFE889F989808185FFF5CFCE010E9463
:100720003203F1CFED8DEC0FFD2FF11DED58FE4F93
:10073000F0829FB7F8940D8FEA89FB8980818062EF
:10074000CFCFCF93DF93EC01888D8823B9F0AA89AE
:10075000BB89E889F9898C9185FD03C0808186FD7C
:100760000DC00FB607FCF7CF8C9185FFF2CF8081CB
:1007700085FFEDCFCE010E943203E9CFDF91CF910B
:10078000089580E090E0892B49F080E090E0892B8B
:1007900029F00E94000081110E94000080E090E09A
:1007A000892B49F080E090E0892B29F00E9400001D
:1007B00081110E94000080E090E0892B29F00E94C6
:1007C000280381110E94000080E090E0892B49F00D
:1007D00080E090E0892B29F00E94000081110C94A8
:1007E000000008958EE793E00E941A03892B29F0F8
:1007F0008EE793E00E94EB02F5CF0895209131053A
:1008000030913205F901E257F94F80832F5F3F4F56
:10081000309332052093310510927D03089586E1CF
:100820000E94CF01019761F46FE070E080E090E0FA
:100830000E947C0286E10E94CF0121E0019709F02D
:1008400020E0822F089561E086E00E94F80160E0D8
:100850008AE10E94F80161E08EE10E94F80169E1FD
:1008600070E080E090E00C947C02CF93DF938CE00A
:100870000E94CF010197D9F3C3E7D0E0CE010197E1
:10088000F1F761E086E00E94F8012197F1F760E05E
:1008900086E0DF91CF910C94F8011092260210921D
:1008A00025028091330591E089278093330561E02B
:1008B000811101C060E088E00C94F8010F931F9350
:1008C000CF93DF93182F062FC8E0D0E010FD0CC0A7
:1008D0000E944D0416950E9435042197B9F7DF91C7
:1008E000CF911F910F91089580912502909126023A
:1008F000019690932602809325020111EBCF059774
:1009000049F70E943504E4CF0F931F930E945702CA
:1009100000911B0210911C0220911D0230911E02B9
:100920006017710782079307E8F482E00E94CF0105
:1009300021E0019709F020E080911A0220931A0229
:10094000281721F30E94570268517C4F8F4F9F4F09
:1009500060931B0270931C0280931D0290931E02F1
:1009600080E00FC00E945702625C7C4F8F4F9F4F08
:1009700060931B0270931C0280931D0290931E02D1
:1009800081E01F910F9108950F931F93CF930091D2
:100990002502109126020E948404C82F882361F04A
:1009A0000F5F1F4F1093260200932502C1E08C2F8A
:1009B000CF911F910F910895109226021092250257
:1009C00005301105A1F70E948404882381F381E09A
:1009D00090E09093260280932502E8CFBC01EAE3E1
:1009E000F5E02FEF3FEFCF018A5395406817790765
:1009F000A4F0919148E050E0A22FA1703695279580
:100A0000892F8170A81721F088E0282784E83827EB
:100A100096954150510981F7E6CFC901809590958F
:100A2000909301028093000208951F920F920FB6D7
:100A30000F9211242F933F938F939F93AF93BF9364
:100A400080913D0990913E09A0913F09B0914009E4
:100A500030913C0923E0230F2D3758F50196A11D55
:100A6000B11D20933C0980933D0990933E09A093CA
:100A70003F09B09340098091410990914209A091AA
:100A80004309B09144090196A11DB11D809341090C
:100A900090934209A0934309B0934409BF91AF9149
:100AA0009F918F913F912F910F900FBE0F901F90AC
:100AB000189526E8230F0296A11DB11DD2CF1F92D3
:100AC0000F920FB60F9211240BB60F922F933F93F4
:100AD0004F935F936F937F938F939F93AF93BF9346
:100AE000EF93FF938EE793E00E943203FF91EF9123
:100AF000BF91AF919F918F917F916F915F914F9136
:100B00003F912F910F900BBE0F900FBE0F901F9033
:100B100018951F920F920FB60F9211240BB60F92D9
:100B20002F934F935F936F937F938F939F93AF9385
:100B3000BF93EF93FF93E0918E03F0918F03808139
:100B4000E0919403F091950382FD2EC02081809165
:100B5000970390919803019664E571E00E946709FC
:100B60004091990350919A038417950759F0E091A9
:100B70009703F0919803E258FC4F278F90939803C6
:100B800080939703FF91EF91BF91AF919F918F91C8
:100B90007F916F915F914F912F910F900BBE0F90AE
:100BA0000FBE0F901F9018958081ECCF789484B57C
:100BB000826084BD84B5816084BD85B5826085BD59
:100BC00085B5816085BD80916E00816080936E00E7
:100BD00010928100809181008260809381008091D9
:100BE000810081608093810080918000816080938A
:100BF00080008091B10084608093B1008091B0004A
:100C000081608093B0008091910082608093910018
:100C1000809191008160809391008091900081602B
:100C2000809390008091A10082608093A1008091C8
:100C3000A10081608093A1008091A00081608093D9
:100C4000A000809121018260809321018091210187
:100C50008160809321018091200181608093200137
:100C600080917A00846080937A0080917A0082601B
:100C700080937A0080917A00816080937A008091DD
:100C80007A00806880937A001092C10064EF71E06E
:100C900080E090E00E947C02E0918E03F0918F034F
:100CA00082E08083E0918A03F0918B031082E091CF
:100CB0008C03F0918D038FEC808310929603E0916A
:100CC0009203F091930386E08083E0919003F0918A
:100CD0009103808180618083E0919003F091910382
:100CE000808188608083E0919003F09191038081FE
:100CF00080688083E0919003F091910380818F7DE3
:100D0000808361E088E00E94260261E08AE00E9420
:100D1000260261E086E00E94260260E08CE00E94EC
:100D2000260260E082E00E94260260E086E10E94E6
:100D3000260261E08AE10E94260261E08EE10E94C3
:100D4000260261E08AE10E94F80161E08EE10E94E2
:100D5000F80161E088E00E94F80161E086E00E940D
:100D6000F80160E08AE00E94F80184EF91E0A0E0E1
:100D7000B0E08093040290930502A0930602B09322
:100D8000070280931F0290932002A0932102B09348
:100D90002202909303028093020261E08AE10E94A2
:100DA000F80161E08EE10E94F80168EC70E080E0FB
:100DB00090E00E947C02BB24B394EDEDAE2EFBEDDF
:100DC0009F2EACED8A2ECC24C394D12C0E942304F8
:100DD00010922602109225020E940F0481112EC04B
:100DE00010923B0910923A09109232051092310587
:100DF0008EE793E00E941A03892B09F471C18EE7F4
:100E000093E00E94EB02803C09F068C110927D03E0
:100E10008EE793E00E941A03892BD1F38EE793E0CB
:100E20000E94EB0290917D03992309F43AC18C3D15
:100E300009F032C180EC0E94FE03EACF2FB7F8948C
:100E400080913D0990913E09A0913F09B0914009E0
:100E50002FBF8093340590933505A0933605B0934A
:100E60003705C0E040911F0250912002609121029D
:100E7000709122022FB7F89480913D0990913E091C
:100E8000A0913F09B09140092FBF00913405109106
:100E900035052091360530913705801B910BA20B4B
:100EA000B30B84179507A607B70768F40C2F10E05B
:100EB00015950795C02F0E94C404882311F0C068BF
:100EC000D1CFCE3779F6C093240281E0CE3709F036
:100ED00080E080932302CE3709F082CF80912302F5
:100EE000811126C0CAE3D5E08E010A5315408091D6
:100EF0002302811136C080912402899308E010E01A
:100F0000712CE72CF12CF594E7947E2C0E94C404FC
:100F1000882311F0689477F80150110991F77092C5
:100F2000240281E0AEE77A1280E080932302DCCFD6
:100F3000C8E0D0E0F12C0F2D10E015950795F02EAC
:100F40000E94C404882311F06894F7F8219799F758
:100F5000F092240281E09EE7F91280E08093230260
:100F6000BDCFE8012197D0933905C0933805C8015A
:100F700003970E94EE04FE01E65CFA4F208130E008
:100F8000322F2227F801E85CFA4F4081240F311DEF
:100F90008217930719F0E601C01BD10BD0933B09D0
:100FA000C0933A091C161D060CF01ECFA6EEB7E042
:100FB000EAE3F5E0CF018A539540C817D9071CF042
:100FC00081918D93F7CF06EE17E0B801665E77400A
:100FD00040913A0950913B09CA0102976817790775
:100FE0000CF002CF43505109D801ED918D01809151
:100FF0007B0390917C039C012F5F3F4FDC01A95D37
:10100000BD4FE03C91F59C92295D3D4FF9018082F6
:10101000029690937C0380937B0346175707A9F6AB
:10102000C0917B03D0917C032197D0937C03C09324
:101030007B0360EC8EE793E00E94540360E08EE750
:1010400093E00E94540387E2E82E82E0F82EC70165
:1010500087529240C817D907ACF0F70161917F0120
:101060008EE793E00E945403F2CFEC93EB3D29F41A
:10107000295D3D4FD901AC92CBCF30937C032093B7
:101080007B03CBCF60EC8EE793E00E945403109279
:101090007C0310927B0399CF8D3D09F0B9CE8BED87
:1010A000CACE8B3D19F4B0927D03B2CE803C09F0DC
:1010B000C2CE0E94F20380913105909132050197D2
:1010C00010923205109231059093E5078093E40762
:1010D0001816190654F00E94C10378CE0E94F2033C
:1010E0001092E5071092E407F6CF64EF71E080E01C
:1010F00090E00E947C021092E3071092E207CFE892
:10110000D6E0AE014E5856402091E4073091E507F5
:10111000241735072CF369918091E2079091E3073A
:10112000FC01E65CFA4F60834217530709F09AC04E
:1011300090933905809338050E94EE047C012FB707
:10114000F89480913D0990913E09A0913F09B0919A
:1011500040092FBF8093340590933505A093360541
:10116000B09337050E940F04882321F140910402B7
:101170005091050260910602709107022FB7F89412
:1011800080913D0990913E09A0913F09B09140099D
:101190002FBF00913405109135052091360530910F
:1011A0003705801B910BA20BB30B84179507A6077D
:1011B000B707C0F261E08AE00E94F8016091020284
:1011C00070910302072E000C880B990B0E947C0281
:1011D0001092330560E086E00E94F80160E088E04C
:1011E0000E94F80160E08EE10E94F80161E08AE16E
:1011F0000E94F8016CE271E080E090E00E947C02C5
:1012000004E110E061E08EE70E945E0401501109E4
:10121000C9F70AE315E02091380530913905C80176
:101220008A53954060E02817390734F0D8018D9132
:101230008D010E945E04EFCF8E2D0E945E0460E05F
:101240008F2D0E945E0461E08EE70E945E0460E0E4
:101250008AE00E94F8010E9423041092E307109292
:10126000E2074FCF01969093E3078093E20749CFBF
:10127000EEE7F3E01382128288EE93E0A0E0B0E0A4
:1012800084839583A683B7838CE092E091838083E7
:1012900085ED90E09587848784ED90E09787868739
:1012A00080ED90E0918B808B81ED90E0938B828B31
:1012B00082ED90E0958B848B86ED90E0978B868B0A
:1012C000128E118E148E138E158E168E0895AA1BF3
:1012D000BB1B51E107C0AA1FBB1FA617B70710F021
:1012E000A61BB70B881F991F5A95A9F78095909553
:1012F000BC01CD010895EE0FFF1F881F8BBF079023
:0A130000F691E02D1994F894FFCF48
:10130A00FFFFF401B80B0000000000005403AF0215
:0A131A00DC02A1031A03EB02080332
:00000001FF
